:100000000C9438000C9455000C9455000C94550039
:100010000C9455000C9455000C9455000C9455000C
:100020000C9455000C9455000C9455000C945500FC
:100030000C9455000C9455000C9455000C945500EC
:100040000C9455000C9455000C9455000C945500DC
:100050000C9455000C9455000C9455000C945500CC
:100060000C9455000C9455000C9455000C945500BC
:1000700011241FBECFEFD0E1DEBFCDBF11E0A0E065
:10008000B1E0E8E0F1E002C005900D92A030B107C8
:10009000D9F711E0A0E0B1E001C01D92A030B10796
:1000A000E1F70E9457000C9482000C94000080E855
:1000B0008093610010926100219A8CE990E0299868
:1000C00024EC39E0FC013197F1F721503040D1F7B1
:1000D00024EC39E0FC013197F1F721503040D1F7A1
:1000E000299A24EC39E0FC013197F1F72150304096
:1000F000D1F724EC39E0FC013197F1F72150304081
:08010000D1F7DDCFF894FFCF29
:00000001FF
